:020000008F2D42
:0E000600213083120313FD00FD0B07280800B4
:100014000F3083120313FC004730FD00FD0B102842
:0A002400FC0B10280000000008008B
:06002E00000000000800C4
:08003400FA1FF213003008006E
:10003C0083120313F801F9011030FC00710DF80D57
:10004C00F90D7408F8027508031C750FF9020318F2
:10005C0036287408F80775080318750FF90703108C
:0A006C00F00DF10DFC0B2428080034
:100076007B15FB1F45280130F300F201F101F00169
:08008600FA0DF20CFF30080036
:10008E0083120313C71B4D2886114E288615471B56
:10009E005228061153280615C71A572886105828B5
:1000AE008614471A5C2806105D2806142718612846
:1000BE00061662280612861617208612C719692898
:1000CE0086116A28861547196E2806116F2806159F
:1000DE00C7187328861074288614471878280610B7
:1000EE007928061427187D2806167E2806128616ED
:1000FE0017208612271C85280A2086280320080030
:0E010E00F201F101F001F801F30100300800E8
:10011C008312031327104208C70047202714080036
:10012C0083120313C501053045020318A4284508A2
:10013C004407840020308000C50A992845084407EC
:10014C0084008001C50345084407C6000A30F4004A
:10015C00F5014208F0004308F1001E207808F00079
:10016C007908F1003030F0074608840070088000F0
:10017C000A30F400F5014208F0004308F1001E209B
:10018C007008C2007108C30000307106031DD0282E
:10019C0000307006031DD328D528C503A9280800F4
:1001AC00E828803083120313C200FB28C030C20041
:1001BC00FB289430C200FB28D430C200FB288030CE
:1001CC00C200FB28831203134208013A0319D728F3
:1001DC004208023A0319DC284208033A0319DF28C3
:1001EC004208043A0319E228E5284303F0004208C8
:1001FC00F0077008C20027147008C70047202710AA
:0A020C004408C7004720271408002B
:100216000E3083120313FD00FD0B0F2900000800AA
:0E0226008312031324088A00230882000800B4
:100234007B14FB1F2529F201FA1FFF30F200F100A5
:0A024400F000FA0DF20CFF30080084
:10024E00FB14FB1F3129FF30F300F200F100F00028
:08025E00FA0DF20CFF3008005C
:10026600A0017208031D48297108F2007008F10008
:10027600F001A0157208031D48297108F200F1016A
:10028600A01120167208031956292008F302031D2F
:10029600031C5A290310F21B5E29F00DF10DF20D15
:1002A600F30B4E295A290130FC00872061290230C0
:0E02B600FC003B2061290430FC001A200800E7
:1002C40083120313FB017308031D77080319B9296B
:1002D40072087606FA007708F3077E30031C762945
:1002E400F3020318BC297929F302031CBF297208FD
:1002F400F8007108FC007008FD00F817F6170310E9
:10030400F201F101F0011830A0007D1C932974085A
:10031400F00775080318750FF10776080318760FB0
:10032400F207F20CF10CF00CF80CFC0CFD0C0310B1
:10033400A00B8729F21BA329F80DF00DF10DF20D86
:10034400F3037B1B701CB529F81FB529F00A0319A8
:10035400F10A0319F20A031DB529F20CF10CF00C91
:10036400F30A0319BC29FA1FF2130030C129013022
:100374008720C12902302721C12904303B200000F5
:0203840008006F
:10038600831203137008F8007108F000F101F201FE
:10039600F301FB01FC019630F300FA017008F1004D
:0C03A6007808F000F801F2013321080093
:1003B200C330831203139F05C0309F003908F00039
:1003C200F00D7010F00D701070089F0483169F17C7
:1003D20083121F140B219F149F1CF1290000ED2989
:1003E2001F101E08F100F00183161E08F0040030F1
:0403F200F10408000A
:1003F6000D2A803083120313B900202AC030B900B9
:10040600202A9430B900202AD430B900202A80301E
:10041600B900202A831203133908013A0319FC296B
:100426003908023A0319012A3908033A0319042A3A
:100436003908043A0319072A0A2A3A03F000390848
:10044600F0077008B9007008C70047202710BC01E4
:100456003C083B07840000080319392A3C083B077F
:1004660084000008C2008E20BC0A2B2A271408002C
:10047600831203130714071C5C2A07150430FB00BC
:100486004030FC002630FD00FD0B472AFC0B472AB6
:10049600FB0B472A000007110430FB004030FC002C
:1004A6002630FD00FD0B552AFC0B552AFB0B552A61
:0404B600000008003A
:1004BA0083120313A6011030260203187A2A390878
:1004CA00C200260AC30026083A07F0003B080318B0
:1004DA00013EF1007008A3007108A40013218A11DB
:0C04EA000A12C400D620A60A602A0800EE
:1004F60083120313BE01BF013908C0003A08C100C8
:1005060080303A06F00080307002031D8C2A0030DD
:10051600390203189A2A0130BE000030BF0039089C
:10052600003CC0003A08031C013EC101C10240085C
:10053600C2004108C3003B08C40096200630BC0038
:100546000030BD003D08003C031DAB2A3C08003CC2
:100556000318C62A3C083B07F20001303C02F000B3
:100566000030031C013E3D02F10070083B07840089
:100576000008F00072088400700880000130BC0298
:10058600031CBD03A52A3B088400203080003E08DA
:100596003F040319E42ABC01BD013C083B07840063
:1005A6000008203A031DDB2ABC0A0319BD0AD02A1B
:1005B6000130BC02031CBD033C083B0784002D3000
:0405C60080000800A9
:1005CA00831203138714871C042B07150230FB00C0
:1005DA003830FC00AD30FD00FD0BF12AFC0BF12A8E
:1005EA00FB0BF12A07110230FB003830FC00AD305A
:1005FA00FD00FD0BFE2AFC0BFE2AFB0BFE2A08005F
:10060A0083120313FB01FC01FA0173080319442B3B
:10061A00F2178E30F302F31B152B0319152B472BF8
:10062A00F309F30A08307302031C2A2BF300F10DB5
:10063A007208F100F20108307302031C2A2BF10D33
:10064A00F1017308031D0310322B73080319322BAF
:10065A000310F20CF10CF30B2D2B7B1B711C3C2BA2
:10066A00031C3C2BF10A0319F20AF21B532BFA1F43
:10067A00562BF209F109F10A0319F20A562BF20173
:10068A00F101562B7B14FB1F592BF201FA1F592B30
:10069A00FF30F200F100FA0DF20C592B0130FC0088
:1006AA005B2B0030FC005B2BFF30FC00FC080319BD
:0E06BA005F2B1A217108F0007208F100080091
:1006C80083120313B901D92170088312AE0071088F
:1006D800AF00C3218F30F400C230F5007530F6004A
:1006E8007D30F700622105237008AE007108AF0065
:1006F8000130B9000630BA000730BB005D222E0871
:10070800B9002F08BA003230BB007B220230B90092
:100718000130BA003230BB00FB212F083102031D23
:10072800972B2E083002031CA52B2F082D06031D1E
:100738009F2B2C082E060319A52B013087003B227E
:10074800BA2B2D082F02031DAB2B2C082E02031CDD
:10075800B92B2F083106031DB32B30082E060319B9
:10076800B92B02308700E522BA2B8701642B0800D9
:1007780083120313FB01FA01F9018030F800F10C30
:10078800F00C031CD02B7408F90775080318750FB3
:10079800FA070318FB0A0310F01FD82B7408FA078E
:1007A80075080318750FFB07FB0CFA0CF90CF80C0D
:1007B800031CC32B7B08F3007A08F2007908F100C8
:0607C8007808F0000800B3
:1007CE0083120313A501F03088000808F03A0319CC
:1007DE006C2CFE308800FF2B3130A5000F2C3230F0
:1007EE00A5000F2C3330A5000F2C4130A5000F2C87
:1007FE000808EE3A0319F32B0808DE3A0319F62B14
:10080E000808BE3A0319F92B08087E3A0319FC2B87
:10081E00FD3088001E2C3430A5002E2C3530A5005E
:10082E002E2C3630A5002E2C4230A5002E2C08087A
:10083E00ED3A0319122C0808DD3A0319152C080895
:10084E00BD3A0319182C08087D3A03191B2CFB30EE
:10085E0088003D2C3730A5004D2C3830A5004D2C8E
:10086E003930A5004D2C4330A5004D2C0808EB3A2D
:10087E000319312C0808DB3A0319342C0808BB3A4B
:10088E000319372C08087B3A03193A2CF7308800E5
:10089E005C2C2A30A5006C2C3030A5006C2C23303B
:1008AE00A5006C2C4430A5006C2C0808E73A0319FF
:1008BE00502C0808D73A0319532C0808B73A0319D5
:1008CE00562C0808773A0319592CF030880008087E
:1008DE00F03A0319732C6E2C8230FC00DD30FD00D3
:0E08EE00FD0B772CFC0B772C0000000008009F
:1008FC00831203132B08023A031D9E2C0130C700F0
:10090C0047200130B900F530BA000630BB005D223B
:10091C000A30FB002230FC00A130FD00FD0B942CB2
:10092C00FC0B942CFB0B942C0130C7004720642348
:02093C000800B1
:10093E0083120313A501AC01AD01E723303025026C
:10094E00031CC72C2508393C031CC72C2508C200E4
:10095E008E202C08F0002D08F1000A30F400003033
:10096E00F500BC2330302502F200F301031CF30323
:10097E0072087007AC0071080318013E7307AD00D2
:10098E0025082A3A031DCE2C0230AB00CF2CA42C06
:02099E0008004F
:1009A000013083120313B9001730BA000730BB00BF
:1009B0005D220230B9000130BA002130BB00FB21BA
:0209C00008002D
:1009C20083120313A501B001B101E72330302502E0
:1009D200031C092D2508393C031C092D2508C200DA
:1009E2008E203008F0003108F1000A30F4000030A7
:1009F200F500BC2330302502F200F301031CF3039F
:100A020072087007B00071080318013E7307B10045
:100A120025082A3A031D102D0130AB00112DE62CBA
:020A22000800CA
:100A240013218A110A128000840AA30A0319A40A52
:080A3400F003031D122D080060
:100A3C00013083120313B900D330BA000630BB0067
:100A4C005D220230B9000130BA002230BB00FB211C
:020A5C00080090
:100A5E0083160313861206120610861006118611CF
:100A6E0083128612061286110611861006100A20AF
:100A7E000A200A20861406148616172086120A20CB
:100A8E008616172086120A208616172086120A202E
:100A9E0006108616172086120A2086161720861232
:100AAE00861086158616172086120A2086110614C1
:100ABE0086161720861206108616172086120A2012
:100ACE0086161720861206148616172086120A20FE
:100ADE00061086161720861286150615861406141D
:0C0AEE008616172086120A202714080024
:100AFA00FF3083120313A800FF30A900FF30AA00B9
:100B0A00FF30C3309F05C0309F0083169F178312A2
:040B1A001F1408009C
:100B1E0083120313A101A20101308316031788006B
:100B2E0089018312871388130130831603138500FE
:100B3E00860183128601F03083168800F03083120E
:100B4E00880083168701831287017D252F250C309F
:100B5E00C70047200130C70047200130B9002830B8
:100B6E00BA000730BB005D220230B9005B30BA001C
:100B7E000730BB005D220A30FB002230FC00A130A2
:100B8E00FD00FD0BC82DFC0BC82DFB0BC82D013035
:100B9E00C70047200130B9004A30BA000730BB0009
:100BAE005D220230B9003930BA000730BB005D2239
:100BBE000A30FB002230FC00A130FD00FD0BE52DBC
:100BCE00FC0BE52DFB0BE52D0130C7004720013056
:100BDE00B900A030BA000630BB005D220230B90069
:100BEE008F30BA000630BB005D220A30FB00223087
:100BFE00FC00A130FD00FD0B022EFC0B022EFB0BA8
:100C0E00022E0130C70047200130B9007E30BA00F5
:100C1E000630BB005D220A30FB002230FC00A13002
:100C2E00FD00FD0B182EFC0B182EFB0B182E0130A1
:100C3E00C70047200130B900B130BA000630BB0002
:100C4E005D220230B900E430BA000630BB005D22EE
:100C5E000A30FB002230FC00A130FD00FD0B352ECA
:100C6E00FC0B352EFB0B352E0130C7004720013013
:100C7E00B900D330BA000630BB005D220A30FB004B
:100C8E002230FC00A130FD00FD0B4B2EFC0B4B2E39
:100C9E00FB0B4B2E0130C70047200130B900C2308C
:100CAE00BA000630BB005D220230B9001730BA0020
:100CBE000730BB005D220A30FB002230FC00A13061
:100CCE00FD00FD0B682EFC0B682EFB0B682E013011
:100CDE00C70047201E25E1240130C7004720D0243D
:0E0CEE009F240130C70047207E24712E7D2EEA
:100CFC00203420342034303434342F344E346F3498
:100D0C0076342F3432343034313436342034203489
:020D1C000034A1
:100D1E00203420342034543465346D3470346534CA
:100D2E007234613474347534723461342034203446
:020D3E0000347F
:100D400020342034203443346F346E34743472349D
:100D50006F346C34203444346534203420342034EF
:020D600000345D
:100D620020342034533465346C3465346334633452
:100D720069346F346E3465342034203420342034A6
:020D820000343B
:100D84002034203444346534733470347534653419
:100D9400733420346C3461342034203420342034CF
:020DA400003419
:100DA600543465346D34703465347234613474345B
:100DB60075347234613420344D3469346E342034E1
:020DC6000034F7
:100DC800203420345034723469346D3465347234CC
:100DD8006F3420346C34613420342034203420348F
:020DE8000034D5
:100DEA0020342034203449346E346934633469340D
:100DFA0061346E3464346F34203420342034203427
:020E0A000034B2
:100E0C0020342034543465346D3470346534723489
:100E1C0061347434753472346134203420342034A9
:020E2C00003490
:100E2E00543465346D3470346534723461347434D2
:100E3E0075347234613420344D3461347834203456
:020E4E0000346E
:100E5000203420342034203453345334503450342C
:100E6000533445342034203420342034203420348A
:020E700000344C
:100E7200203420342034323431343534383436346A
:100E82003034303434343934203420342034203473
:020E920000342A
:100E940020344334613472346C346F34733420340A
:100EA40041346734753469346C34613472342034B9
:020EB400003408
:100EB60049346E3467342E3420344A346F347334F4
:100EC60065342034523461346D346F3473342034D5
:020ED6000034E6
:04400E00F22F000786
:00000001FF
